S0180000506F736C61626F7261746F72696F20352E73726563E7
S11300000C9434000C9451000C9451000C94510045
S11300100C9451000C9451000C9451000C94510018
S11300200C9451000C9451000C9451000C94510008
S11300300C9451000C9451000C9451000C945100F8
S11300400C9423010C9451000C9451000C94510015
S11300500C9451000C94CF000C9451000C9451005A
S11300600C9451000C94510011241FBECFEFD8E022
S1130070DEBFCDBF11E0A0E0B1E0EAEEF4E002C0E3
S113008005900D92A230B107D9F721E0A2E0B1E0CA
S113009001C01D92AE30B207E1F70E94A4000C9497
S11300A073020C940000ECE7F0E01082808180641D
S11300B0808380818F778083808180628083EAE778
S11300C0F0E0808180688083808188608083808183
S11300D0836080830895F894E1E6F0E080E880830B
S11300E083E0808321E030E04FEF6FEF80E00E94F7
S11300F01B0223EC39E048E050E060E081E00E941C
S1130100640140E850E060E081E00E94B9018FEFB3
S11301108AB90E94530078940895ECE7F0E0908146
S1130120907F9083893008F088E0863010F48093C3
S11301307E00ECE7F0E09081892B8083EAE7F0E031
S113014080818064808308950E946B0086E990E03A
S11301500E9465028AE00E946A0285E080930001A1
S11301600E948D0087EA91E60197F1F700C0000034
S113017086E0809300010E948D0087EA91E6019752
S1130180F1F700C0000087E0809300010E948D0019
S113019087EA91E60197F1F700C00000DECF1F92D5
S11301A00F920FB60F9211242F933F934F935F93A7
S11301B06F937F938F939F93AF93BF93EF93FF932B
S11301C080910001853051F48091790090E08F5B3B
S11301D09F4F909305018093040111C0863049F428
S11301E080917900869586958695895F8093030131
S11301F006C0873021F48091790080930201EAE7F8
S1130200F0E08081806180838091040190910501F8
S11302100E946502809103010E946A02809102019A
S11302200E946D02FF91EF91BF91AF919F918F91C9
S11302307F916F915F914F913F912F910F900FBEDE
S11302400F901F9018951F920F920FB60F921124C2
S11302502F933F938F939F93809106019091070171
S1130260019690930701809306018091080180957F
S113027086BD209106013091070180910A01909179
S11302800B012817390739F410920701109206015F
S113029085B1806285B92091060130910701809172
S11302A00C0190910D012817390719F485B18F7D40
S11302B085B985B385BB9F918F913F912F910F9005
S11302C00FBE0F901F90189594B1926094B9882333
S11302D021F0109280001092810010928200E0E8D8
S11302E0F0E0808180688083662319F080818064D7
S11302F08083E0E8F0E080818A61808340345105A6
S1130300E1F038F44130510561F04830510579F09D
S113031026C0411581E05807B1F041155440C9F099
S11303201EC0E1E8F0E08081816080831DC0E1E8C7
S1130330F0E080818260808317C0E1E8F0E0808192
S11303408360808311C0E1E8F0E080818460808371
S11303500BC0E1E8F0E080818560808305C0E1E8BE
S1130360F0E080818560808330938700209386004D
S113037008959AB198609AB9882321F01092B00038
S11303801092B100E0EBF0E080818062808366230C
S113039019F0808180618083E0EBF0E080818360EC
S11303A080834034510549F150F448305105C9F077
S11303B040325105E1F041305105B9F50CC0411509
S11303C081E0580731F1411584E0580741F1403884
S11303D0510559F518C0E1EBF0E08081816080831C
S11303E00895E1EBF0E08081826080830895E1EB81
S11303F0F0E08081836080830895E1EBF0E0808108
S1130400846080830895E1EBF0E0808185608083DF
S11304100895E1EBF0E08081866080830895E1EB4C
S1130420F0E08081876080830895E1EBF0E08081D3
S113043087608083089594B1906294B914BC15BC0C
S1130440109207011092060190E090930D018093A1
S11304500C0150E0509309014093080170E070933F
S11304600B0160930A0181E080936E008091080182
S1130470809586BD20343105C1F038F42130310532
S113048061F02830310569F01CC0211581E038077E
S113049081F02115344089F014C085B5816085BD93
S11304A0089585B5826085BD089585B5836085BD51
S11304B0089585B5846085BD089585B5856085BD3D
S11304C0089585B5856085BD0895909389008093CE
S11304D0880008958093B400089590E090930D01EE
S10D04E080930C010895F894FFCFF7
S10504EA060006
S9030000FC
