S00F00005072656C6162352E737265638A
S11300000C9434000C9446000C9446000C94460066
S11300100C9446000C9446000C9446000C94460044
S11300200C9446000C9446000C9446000C94460034
S11300300C9446000C9446000C9446000C94460024
S11300400C9446000C9446000C9446000C94460014
S11300500C9446000C9487000C9446000C944600C3
S11300600C9446000C94460011241FBECFEFD8E038
S1130070DEBFCDBF21E0A0E0B1E001C01D92A230FF
S1130080B207E1F70E9472000C9417010C9400006F
S1130090ECE7F0E0108280818064808380818F7738
S11300A08083808186608083808180628083EAE7A8
S11300B0F0E0808180688083808188608083808193
S11300C0876080830895F89423EC39E040E450E09D
S11300D060E081E00E94BD001092C1000E944800CF
S11300E0789408950E94630086E990E00E941201CA
S11300F0EAE7F0E08081806480832FEF81EE94E072
S1130100215080409040E1F700C00000F1CF1F92E1
S11301100F920FB60F9211242F933F934F935F9337
S11301206F937F938F939F93AF93BF93EF93FF93BB
S11301308091790090E08F5B9F4F909301018093B1
S11301400001EAE7F0E08081806180838091000112
S1130150909101010E941201FF91EF91BF91AF9123
S11301609F918F917F916F915F914F913F912F91CB
S11301700F900FBE0F901F90189594B1926094B990
S1130180882321F010928000109281001092820046
S1130190E0E8F0E0808180688083662319F0808144
S11301A080648083E0E8F0E080818A618083403469
S11301B05105E1F038F44130510561F04830510502
S11301C079F026C0411581E05807B1F0411554403B
S11301D0C9F01EC0E1E8F0E08081816080831DC029
S11301E0E1E8F0E080818260808317C0E1E8F0E01C
S11301F080818360808311C0E1E8F0E080818460C5
S113020080830BC0E1E8F0E080818560808305C0D5
S1130210E1E8F0E08081856080833093870020935B
S11302208600089590938900809388000895F89437
S1050230FFCFFA
S9030000FC
