:100000000C9434000C9451000C9451000C94510049
:100010000C9451000C9451000C9451000C9451001C
:100020000C9451000C9451000C9451000C9451000C
:100030000C9451000C9451000C9451000C945100FC
:100040000C9451000C9451000C9451000C945100EC
:100050000C9451000C94B9000C9451000C94510074
:100060000C9451000C94510011241FBECFEFD8E026
:10007000DEBFCDBF11E0A0E0B1E0E6E8F3E002C0F2
:1000800005900D92A230B107D9F721E0A2E0B1E0CE
:1000900001C01D92A530B207E1F70E9499000C94AF
:1000A000C1010C940000ECE7F0E0108280818064D4
:1000B000808380818F778083808180628083EAE77C
:1000C000F0E0808180688083808188608083808187
:1000D000876080830895F894E1E6F0E080E880830B
:1000E00083E0808323EC39E048E050E060E081E089
:1000F0000E94020140E850E060E081E00E94570168
:100100008FEF8AB90E94530078940895ECE7F0E0ED
:100110009081907F9083893008F088E0ECE7F0E0F0
:100120009081892B8083EAE7F0E08081806480837E
:1001300008950E946B0086E990E00E94B9018AE070
:100140000E94BE0186E0809300010E94860087EA3B
:1001500091E60197F1F700C0000087E0809300016D
:100160000E94860087EA91E60197F1F700C000003F
:10017000E9CF1F920F920FB60F9211242F933F9346
:100180004F935F936F937F938F939F93AF93BF939F
:10019000EF93FF9380910001863051F480917900B4
:1001A00090E08F5B9F4F90930401809303010AC0FE
:1001B000873041F480917900869586958695895F90
:1001C00080930201EAE7F0E0808180618083809182
:1001D0000301909104010E94B901809102010E94E3
:1001E000BE01FF91EF91BF91AF919F918F917F9150
:1001F0006F915F914F913F912F910F900FBE0F9094
:100200001F90189594B1926094B9882321F01092B0
:1002100080001092810010928200E0E8F0E080817E
:1002200080688083662319F0808180648083E0E8A1
:10023000F0E080818A61808340345105E1F038F438
:100240004130510561F04830510579F026C0411523
:1002500081E05807B1F041155440C9F01EC0E1E8F3
:10026000F0E08081816080831DC0E1E8F0E0808162
:100270008260808317C0E1E8F0E080818360808342
:1002800011C0E1E8F0E08081846080830BC0E1E888
:10029000F0E080818560808305C0E1E8F0E0808146
:1002A00085608083309387002093860008959AB1FB
:1002B00098609AB9882321F01092B0001092B10092
:1002C000E0EBF0E0808180628083662319F080811A
:1002D00080618083E0EBF0E0808183608083403444
:1002E000510549F150F448305105C9F040325105EB
:1002F000E1F041305105B9F50CC0411581E05807D6
:1003000031F1411584E0580741F14038510559F564
:1003100018C0E1EBF0E08081816080830895E1EB1B
:10032000F0E08081826080830895E1EBF0E08081DD
:10033000836080830895E1EBF0E0808184608083B6
:100340000895E1EBF0E08081856080830895E1EB22
:10035000F0E08081866080830895E1EBF0E08081A9
:10036000876080830895E1EBF0E08081876080837F
:100370000895909389008093880008958093B40035
:060380000895F894FFCF80
:0203860006006F
:00000001FF
